地址：tb1qye96rftwsgkxkl2v2m78xv4r4uzvap7kfqh5em

tx_ hash：68b807ede510ce4e8a82ca6c9819dd09e4d59d98c7f8c241d19c4fc9c2b44367

tx_detial：

{
    "block_hash": "00000000000000213edd57c640d6e9d628c443b8a7e6cdf471ffac84d6bbc291",
    "block_height": 2441984,
    "block_index": 13,
    "hash": "68b807ede510ce4e8a82ca6c9819dd09e4d59d98c7f8c241d19c4fc9c2b44367",
    "hex": "0200000001e1b8087821aeb5ab40a0df8477e03da492c5c420bca2058d1f65a548f9d1836d010000006a47304402203b6fdcac9ad354d8347ef5409a12276e6021b7c68150f5be0c1398c384c9352602207df29a5986524869414b39fd05dcbadfb05793064753ae7ff3cb50845cc206220121039209a7ec6c38acaf3fdc11944a5e3050b41c6ffca83858a4445955b512d8d98ffdffffff024c5b190000000000160014264ba1a56e822c6b7d4c56fc7332a3af04ce87d6d40e223d000000001600146cf3931796c88d1835fd899a927eca93a87d4dffff422500",
    "addresses": [
        "mrLaWm7x3kZFUVxzvhBCQ9qs8zytTnJKwu",
        "tb1qdneex9ukezx3sd0a3xdfylk2jw586n0lvtyfzt",
        "tb1qye96rftwsgkxkl2v2m78xv4r4uzvap7kfqh5em"
    ],
    "total": 1027303968,
    "fees": 21900,
    "size": 219,
    "vsize": 219,
    "preference": "high",
    "confirmed": "2023-07-15T07:12:09Z",
    "received": "2023-07-15T07:12:09Z",
    "ver": 2,
    "lock_time": 2441983,
    "double_spend": false,
    "vin_sz": 1,
    "vout_sz": 2,
    "opt_in_rbf": true,
    "confirmations": 1,
    "confidence": 1,
    "inputs": [
        {
            "prev_hash": "6d83d1f948a5651f8d05a2bc20c4c592a43de07784dfa040abb5ae217808b8e1",
            "output_index": 1,
            "script": "47304402203b6fdcac9ad354d8347ef5409a12276e6021b7c68150f5be0c1398c384c9352602207df29a5986524869414b39fd05dcbadfb05793064753ae7ff3cb50845cc206220121039209a7ec6c38acaf3fdc11944a5e3050b41c6ffca83858a4445955b512d8d98f",
            "output_value": 1027325868,
            "sequence": 4294967293,
            "addresses": [
                "mrLaWm7x3kZFUVxzvhBCQ9qs8zytTnJKwu"
            ],
            "script_type": "pay-to-pubkey-hash",
            "age": 2441984
        }
    ],
    "outputs": [
        {
            "value": 1661772,
            "script": "0014264ba1a56e822c6b7d4c56fc7332a3af04ce87d6",
            "addresses": [
                "tb1qye96rftwsgkx